{
  "_format": "hh-sol-artifact-1",
  "contractName": "SevenDotsToken",
  "sourceName": "contracts/SevenDotsToken.sol",
  "abi": [
    {
      "inputs": [],
      "stateMutability": "nonpayable",
      "type": "constructor"
    },
    {
      "anonymous": false,
      "inputs": [
        {
          "indexed": false,
          "internalType": "address",
          "name": "previousAdmin",
          "type": "address"
        },
        {
          "indexed": false,
          "internalType": "address",
          "name": "newAdmin",
          "type": "address"
        }
      ],
      "name": "AdminChanged",
      "type": "event"
    },
    {
      "anonymous": false,
      "inputs": [
        {
          "indexed": true,
          "internalType": "address",
          "name": "owner",
          "type": "address"
        },
        {
          "indexed": true,
          "internalType": "address",
          "name": "approved",
          "type": "address"
        },
        {
          "indexed": true,
          "internalType": "uint256",
          "name": "tokenId",
          "type": "uint256"
        }
      ],
      "name": "Approval",
      "type": "event"
    },
    {
      "anonymous": false,
      "inputs": [
        {
          "indexed": true,
          "internalType": "address",
          "name": "owner",
          "type": "address"
        },
        {
          "indexed": true,
          "internalType": "address",
          "name": "operator",
          "type": "address"
        },
        {
          "indexed": false,
          "internalType": "bool",
          "name": "approved",
          "type": "bool"
        }
      ],
      "name": "ApprovalForAll",
      "type": "event"
    },
    {
      "anonymous": false,
      "inputs": [
        {
          "indexed": true,
          "internalType": "address",
          "name": "beacon",
          "type": "address"
        }
      ],
      "name": "BeaconUpgraded",
      "type": "event"
    },
    {
      "anonymous": false,
      "inputs": [
        {
          "indexed": false,
          "internalType": "address",
          "name": "account",
          "type": "address"
        }
      ],
      "name": "Paused",
      "type": "event"
    },
    {
      "anonymous": false,
      "inputs": [
        {
          "indexed": true,
          "internalType": "bytes32",
          "name": "role",
          "type": "bytes32"
        },
        {
          "indexed": true,
          "internalType": "bytes32",
          "name": "previousAdminRole",
          "type": "bytes32"
        },
        {
          "indexed": true,
          "internalType": "bytes32",
          "name": "newAdminRole",
          "type": "bytes32"
        }
      ],
      "name": "RoleAdminChanged",
      "type": "event"
    },
    {
      "anonymous": false,
      "inputs": [
        {
          "indexed": true,
          "internalType": "bytes32",
          "name": "role",
          "type": "bytes32"
        },
        {
          "indexed": true,
          "internalType": "address",
          "name": "account",
          "type": "address"
        },
        {
          "indexed": true,
          "internalType": "address",
          "name": "sender",
          "type": "address"
        }
      ],
      "name": "RoleGranted",
      "type": "event"
    },
    {
      "anonymous": false,
      "inputs": [
        {
          "indexed": true,
          "internalType": "bytes32",
          "name": "role",
          "type": "bytes32"
        },
        {
          "indexed": true,
          "internalType": "address",
          "name": "account",
          "type": "address"
        },
        {
          "indexed": true,
          "internalType": "address",
          "name": "sender",
          "type": "address"
        }
      ],
      "name": "RoleRevoked",
      "type": "event"
    },
    {
      "anonymous": false,
      "inputs": [
        {
          "indexed": true,
          "internalType": "address",
          "name": "from",
          "type": "address"
        },
        {
          "indexed": true,
          "internalType": "address",
          "name": "to",
          "type": "address"
        },
        {
          "indexed": true,
          "internalType": "uint256",
          "name": "tokenId",
          "type": "uint256"
        }
      ],
      "name": "Transfer",
      "type": "event"
    },
    {
      "anonymous": false,
      "inputs": [
        {
          "indexed": false,
          "internalType": "address",
          "name": "account",
          "type": "address"
        }
      ],
      "name": "Unpaused",
      "type": "event"
    },
    {
      "anonymous": false,
      "inputs": [
        {
          "indexed": true,
          "internalType": "address",
          "name": "implementation",
          "type": "address"
        }
      ],
      "name": "Upgraded",
      "type": "event"
    },
    {
      "inputs": [],
      "name": "DEFAULT_ADMIN_ROLE",
      "outputs": [
        {
          "internalType": "bytes32",
          "name": "",
          "type": "bytes32"
        }
      ],
      "stateMutability": "view",
      "type": "function"
    },
    {
      "inputs": [],
      "name": "MINTER_ROLE",
      "outputs": [
        {
          "internalType": "bytes32",
          "name": "",
          "type": "bytes32"
        }
      ],
      "stateMutability": "view",
      "type": "function"
    },
    {
      "inputs": [],
      "name": "PAUSER_ROLE",
      "outputs": [
        {
          "internalType": "bytes32",
          "name": "",
          "type": "bytes32"
        }
      ],
      "stateMutability": "view",
      "type": "function"
    },
    {
      "inputs": [],
      "name": "UPGRADER_ROLE",
      "outputs": [
        {
          "internalType": "bytes32",
          "name": "",
          "type": "bytes32"
        }
      ],
      "stateMutability": "view",
      "type": "function"
    },
    {
      "inputs": [
        {
          "internalType": "address",
          "name": "to",
          "type": "address"
        },
        {
          "internalType": "uint256",
          "name": "tokenId",
          "type": "uint256"
        }
      ],
      "name": "approve",
      "outputs": [],
      "stateMutability": "nonpayable",
      "type": "function"
    },
    {
      "inputs": [
        {
          "internalType": "address",
          "name": "owner",
          "type": "address"
        }
      ],
      "name": "balanceOf",
      "outputs": [
        {
          "internalType": "uint256",
          "name": "",
          "type": "uint256"
        }
      ],
      "stateMutability": "view",
      "type": "function"
    },
    {
      "inputs": [
        {
          "internalType": "uint256",
          "name": "tokenId",
          "type": "uint256"
        }
      ],
      "name": "burn",
      "outputs": [],
      "stateMutability": "nonpayable",
      "type": "function"
    },
    {
      "inputs": [
        {
          "internalType": "uint256",
          "name": "tokenId",
          "type": "uint256"
        }
      ],
      "name": "dotCountOf",
      "outputs": [
        {
          "internalType": "uint256",
          "name": "",
          "type": "uint256"
        }
      ],
      "stateMutability": "view",
      "type": "function"
    },
    {
      "inputs": [
        {
          "internalType": "uint256",
          "name": "tokenId",
          "type": "uint256"
        }
      ],
      "name": "getApproved",
      "outputs": [
        {
          "internalType": "address",
          "name": "",
          "type": "address"
        }
      ],
      "stateMutability": "view",
      "type": "function"
    },
    {
      "inputs": [
        {
          "internalType": "bytes32",
          "name": "role",
          "type": "bytes32"
        }
      ],
      "name": "getRoleAdmin",
      "outputs": [
        {
          "internalType": "bytes32",
          "name": "",
          "type": "bytes32"
        }
      ],
      "stateMutability": "view",
      "type": "function"
    },
    {
      "inputs": [
        {
          "internalType": "bytes32",
          "name": "role",
          "type": "bytes32"
        },
        {
          "internalType": "address",
          "name": "account",
          "type": "address"
        }
      ],
      "name": "grantRole",
      "outputs": [],
      "stateMutability": "nonpayable",
      "type": "function"
    },
    {
      "inputs": [
        {
          "internalType": "bytes32",
          "name": "role",
          "type": "bytes32"
        },
        {
          "internalType": "address",
          "name": "account",
          "type": "address"
        }
      ],
      "name": "hasRole",
      "outputs": [
        {
          "internalType": "bool",
          "name": "",
          "type": "bool"
        }
      ],
      "stateMutability": "view",
      "type": "function"
    },
    {
      "inputs": [
        {
          "internalType": "address",
          "name": "_metadata",
          "type": "address"
        }
      ],
      "name": "initialize",
      "outputs": [],
      "stateMutability": "nonpayable",
      "type": "function"
    },
    {
      "inputs": [
        {
          "internalType": "address",
          "name": "owner",
          "type": "address"
        },
        {
          "internalType": "address",
          "name": "operator",
          "type": "address"
        }
      ],
      "name": "isApprovedForAll",
      "outputs": [
        {
          "internalType": "bool",
          "name": "",
          "type": "bool"
        }
      ],
      "stateMutability": "view",
      "type": "function"
    },
    {
      "inputs": [],
      "name": "name",
      "outputs": [
        {
          "internalType": "string",
          "name": "",
          "type": "string"
        }
      ],
      "stateMutability": "view",
      "type": "function"
    },
    {
      "inputs": [
        {
          "internalType": "uint256",
          "name": "tokenId",
          "type": "uint256"
        }
      ],
      "name": "ownerOf",
      "outputs": [
        {
          "internalType": "address",
          "name": "",
          "type": "address"
        }
      ],
      "stateMutability": "view",
      "type": "function"
    },
    {
      "inputs": [],
      "name": "pause",
      "outputs": [],
      "stateMutability": "nonpayable",
      "type": "function"
    },
    {
      "inputs": [],
      "name": "paused",
      "outputs": [
        {
          "internalType": "bool",
          "name": "",
          "type": "bool"
        }
      ],
      "stateMutability": "view",
      "type": "function"
    },
    {
      "inputs": [
        {
          "internalType": "bytes32",
          "name": "role",
          "type": "bytes32"
        },
        {
          "internalType": "address",
          "name": "account",
          "type": "address"
        }
      ],
      "name": "renounceRole",
      "outputs": [],
      "stateMutability": "nonpayable",
      "type": "function"
    },
    {
      "inputs": [
        {
          "internalType": "bytes32",
          "name": "role",
          "type": "bytes32"
        },
        {
          "internalType": "address",
          "name": "account",
          "type": "address"
        }
      ],
      "name": "revokeRole",
      "outputs": [],
      "stateMutability": "nonpayable",
      "type": "function"
    },
    {
      "inputs": [
        {
          "internalType": "address",
          "name": "to",
          "type": "address"
        },
        {
          "internalType": "bytes32",
          "name": "seed",
          "type": "bytes32"
        }
      ],
      "name": "safeMint",
      "outputs": [],
      "stateMutability": "nonpayable",
      "type": "function"
    },
    {
      "inputs": [
        {
          "internalType": "address",
          "name": "from",
          "type": "address"
        },
        {
          "internalType": "address",
          "name": "to",
          "type": "address"
        },
        {
          "internalType": "uint256",
          "name": "tokenId",
          "type": "uint256"
        }
      ],
      "name": "safeTransferFrom",
      "outputs": [],
      "stateMutability": "nonpayable",
      "type": "function"
    },
    {
      "inputs": [
        {
          "internalType": "address",
          "name": "from",
          "type": "address"
        },
        {
          "internalType": "address",
          "name": "to",
          "type": "address"
        },
        {
          "internalType": "uint256",
          "name": "tokenId",
          "type": "uint256"
        },
        {
          "internalType": "bytes",
          "name": "_data",
          "type": "bytes"
        }
      ],
      "name": "safeTransferFrom",
      "outputs": [],
      "stateMutability": "nonpayable",
      "type": "function"
    },
    {
      "inputs": [
        {
          "internalType": "uint256",
          "name": "tokenId",
          "type": "uint256"
        }
      ],
      "name": "seedOfToken",
      "outputs": [
        {
          "internalType": "bytes32",
          "name": "",
          "type": "bytes32"
        }
      ],
      "stateMutability": "view",
      "type": "function"
    },
    {
      "inputs": [
        {
          "internalType": "address",
          "name": "operator",
          "type": "address"
        },
        {
          "internalType": "bool",
          "name": "approved",
          "type": "bool"
        }
      ],
      "name": "setApprovalForAll",
      "outputs": [],
      "stateMutability": "nonpayable",
      "type": "function"
    },
    {
      "inputs": [
        {
          "internalType": "bytes4",
          "name": "interfaceId",
          "type": "bytes4"
        }
      ],
      "name": "supportsInterface",
      "outputs": [
        {
          "internalType": "bool",
          "name": "",
          "type": "bool"
        }
      ],
      "stateMutability": "view",
      "type": "function"
    },
    {
      "inputs": [],
      "name": "symbol",
      "outputs": [
        {
          "internalType": "string",
          "name": "",
          "type": "string"
        }
      ],
      "stateMutability": "view",
      "type": "function"
    },
    {
      "inputs": [
        {
          "internalType": "uint256",
          "name": "index",
          "type": "uint256"
        }
      ],
      "name": "tokenByIndex",
      "outputs": [
        {
          "internalType": "uint256",
          "name": "",
          "type": "uint256"
        }
      ],
      "stateMutability": "view",
      "type": "function"
    },
    {
      "inputs": [
        {
          "internalType": "address",
          "name": "owner",
          "type": "address"
        },
        {
          "internalType": "uint256",
          "name": "index",
          "type": "uint256"
        }
      ],
      "name": "tokenOfOwnerByIndex",
      "outputs": [
        {
          "internalType": "uint256",
          "name": "",
          "type": "uint256"
        }
      ],
      "stateMutability": "view",
      "type": "function"
    },
    {
      "inputs": [
        {
          "internalType": "uint256",
          "name": "tokenId",
          "type": "uint256"
        }
      ],
      "name": "tokenURI",
      "outputs": [
        {
          "internalType": "string",
          "name": "",
          "type": "string"
        }
      ],
      "stateMutability": "view",
      "type": "function"
    },
    {
      "inputs": [],
      "name": "totalDotCount",
      "outputs": [
        {
          "internalType": "uint256",
          "name": "",
          "type": "uint256"
        }
      ],
      "stateMutability": "view",
      "type": "function"
    },
    {
      "inputs": [],
      "name": "totalSupply",
      "outputs": [
        {
          "internalType": "uint256",
          "name": "",
          "type": "uint256"
        }
      ],
      "stateMutability": "view",
      "type": "function"
    },
    {
      "inputs": [
        {
          "internalType": "address",
          "name": "from",
          "type": "address"
        },
        {
          "internalType": "address",
          "name": "to",
          "type": "address"
        },
        {
          "internalType": "uint256",
          "name": "tokenId",
          "type": "uint256"
        }
      ],
      "name": "transferFrom",
      "outputs": [],
      "stateMutability": "nonpayable",
      "type": "function"
    },
    {
      "inputs": [],
      "name": "unpause",
      "outputs": [],
      "stateMutability": "nonpayable",
      "type": "function"
    },
    {
      "inputs": [
        {
          "internalType": "address",
          "name": "newImplementation",
          "type": "address"
        }
      ],
      "name": "upgradeTo",
      "outputs": [],
      "stateMutability": "nonpayable",
      "type": "function"
    },
    {
      "inputs": [
        {
          "internalType": "address",
          "name": "newImplementation",
          "type": "address"
        },
        {
          "internalType": "bytes",
          "name": "data",
          "type": "bytes"
        }
      ],
      "name": "upgradeToAndCall",
      "outputs": [],
      "stateMutability": "payable",
      "type": "function"
    }
  ],
  "bytecode": "0x60a0604052306080523480156200001557600080fd5b50600054610100900460ff16620000335760005460ff16156200003d565b6200003d620000e2565b620000a55760405162461bcd60e51b815260206004820152602e60248201527f496e697469616c697a61626c653a20636f6e747261637420697320616c72656160448201526d191e481a5b9a5d1a585b1a5e995960921b606482015260840160405180910390fd5b600054610100900460ff16158015620000c8576000805461ffff19166101011790555b8015620000db576000805461ff00191690555b5062000106565b6000620000fa306200010060201b62001c6f1760201c565b15905090565b3b151590565b608051614be26200013760003960008181610cec01528181610d9c01528181610fde015261108e0152614be26000f3fe60806040526004361061024f5760003560e01c80636352211e11610138578063b88d4fde116100b0578063d53913931161007f578063e63ab1e911610064578063e63ab1e9146106bd578063e985e9c5146106f1578063f72c0d8b1461074757600080fd5b8063d539139314610669578063d547741f1461069d57600080fd5b8063b88d4fde146105e9578063c4d66de814610609578063c87b56dd14610629578063d148bac21461064957600080fd5b80638fbb34f31161010757806395d89b41116100ec57806395d89b411461059f578063a217fddf146105b4578063a22cb465146105c957600080fd5b80638fbb34f31461052c57806391d148541461054c57600080fd5b80636352211e146104b757806367d51cc4146104d757806370a08231146104f75780638456cb591461051757600080fd5b80632f745c59116101cb57806342842e0e1161019a5780634f1ef2861161017f5780634f1ef2861461046c5780634f6ccce71461047f5780635c975abb1461049f57600080fd5b806342842e0e1461042c57806342966c681461044c57600080fd5b80632f745c59146103b757806336568abe146103d75780633659cfe6146103f75780633f4ba83a1461041757600080fd5b806318160ddd11610222578063248a9ca311610207578063248a9ca3146103515780632de2d5cc146103815780632f2ff15d1461039757600080fd5b806318160ddd1461031257806323b872dd1461033157600080fd5b806301ffc9a71461025457806306fdde0314610289578063081812fc146102ab578063095ea7b3146102f0575b600080fd5b34801561026057600080fd5b5061027461026f36600461420c565b61077b565b60405190151581526020015b60405180910390f35b34801561029557600080fd5b5061029e61078c565b604051610280919061429f565b3480156102b757600080fd5b506102cb6102c63660046142b2565b61081e565b60405173ffffffffffffffffffffffffffffffffffffffff9091168152602001610280565b3480156102fc57600080fd5b5061031061030b3660046142f4565b6108fd565b005b34801561031e57600080fd5b506099545b604051908152602001610280565b34801561033d57600080fd5b5061031061034c36600461431e565b610a8a565b34801561035d57600080fd5b5061032361036c3660046142b2565b600090815260fb602052604090206001015490565b34801561038d57600080fd5b506101c654610323565b3480156103a357600080fd5b506103106103b236600461435a565b610b2c565b3480156103c357600080fd5b506103236103d23660046142f4565b610b52565b3480156103e357600080fd5b506103106103f236600461435a565b610c21565b34801561040357600080fd5b50610310610412366004614386565b610cd4565b34801561042357600080fd5b50610310610eda565b34801561043857600080fd5b5061031061044736600461431e565b610f0d565b34801561045857600080fd5b506103106104673660046142b2565b610f28565b61031061047a3660046144bb565b610fc6565b34801561048b57600080fd5b5061032361049a3660046142b2565b6111b9565b3480156104ab57600080fd5b5060c95460ff16610274565b3480156104c357600080fd5b506102cb6104d23660046142b2565b611277565b3480156104e357600080fd5b506103106104f23660046142f4565b611329565b34801561050357600080fd5b50610323610512366004614386565b611439565b34801561052357600080fd5b50610310611507565b34801561053857600080fd5b506103236105473660046142b2565b61153a565b34801561055857600080fd5b5061027461056736600461435a565b600091825260fb6020908152604080842073ffffffffffffffffffffffffffffffffffffffff93909316845291905290205460ff1690565b3480156105ab57600080fd5b5061029e6115c4565b3480156105c057600080fd5b50610323600081565b3480156105d557600080fd5b506103106105e4366004614509565b6115d3565b3480156105f557600080fd5b50610310610604366004614545565b6115de565b34801561061557600080fd5b50610310610624366004614386565b611680565b34801561063557600080fd5b5061029e6106443660046142b2565b611902565b34801561065557600080fd5b506103236106643660046142b2565b611baa565b34801561067557600080fd5b506103237f9f2df0fed2c77648de5860a4cc508cd0818c85b8b8a1ab4ceeef8d981c8956a681565b3480156106a957600080fd5b506103106106b836600461435a565b611c49565b3480156106c957600080fd5b506103237f65d7a28e3265b37a6474929f336521b332c1681b933f6cb9f3376673440d862a81565b3480156106fd57600080fd5b5061027461070c3660046145ad565b73ffffffffffffffffffffffffffffffffffffffff9182166000908152606a6020908152604080832093909416825291909152205460ff1690565b34801561075357600080fd5b506103237f189ab7a9244df0848122154315af71fe140f3db0fe014031783b0946b8c9d2e381565b600061078682611c75565b92915050565b60606065805461079b906145d7565b80601f01602080910402602001604051908101604052809291908181526020018280546107c7906145d7565b80156108145780601f106107e957610100808354040283529160200191610814565b820191906000526020600020905b8154815290600101906020018083116107f757829003601f168201915b5050505050905090565b60008181526067602052604081205473ffffffffffffffffffffffffffffffffffffffff166108d4576040517f08c379a000000000000000000000000000000000000000000000000000000000815260206004820152602c60248201527f4552433732313a20617070726f76656420717565727920666f72206e6f6e657860448201527f697374656e7420746f6b656e000000000000000000000000000000000000000060648201526084015b60405180910390fd5b5060009081526069602052604090205473ffffffffffffffffffffffffffffffffffffffff1690565b600061090882611277565b90508073ffffffffffffffffffffffffffffffffffffffff168373ffffffffffffffffffffffffffffffffffffffff1614156109c6576040517f08c379a000000000000000000000000000000000000000000000000000000000815260206004820152602160248201527f4552433732313a20617070726f76616c20746f2063757272656e74206f776e6560448201527f720000000000000000000000000000000000000000000000000000000000000060648201526084016108cb565b3373ffffffffffffffffffffffffffffffffffffffff821614806109ef57506109ef813361070c565b610a7b576040517f08c379a000000000000000000000000000000000000000000000000000000000815260206004820152603860248201527f4552433732313a20617070726f76652063616c6c6572206973206e6f74206f7760448201527f6e6572206e6f7220617070726f76656420666f7220616c6c000000000000000060648201526084016108cb565b610a858383611ccb565b505050565b610a95335b82611d6b565b610b21576040517f08c379a000000000000000000000000000000000000000000000000000000000815260206004820152603160248201527f4552433732313a207472616e736665722063616c6c6572206973206e6f74206f60448201527f776e6572206e6f7220617070726f76656400000000000000000000000000000060648201526084016108cb565b610a85838383611edb565b600082815260fb6020526040902060010154610b48813361214d565b610a85838361221f565b6000610b5d83611439565b8210610beb576040517f08c379a000000000000000000000000000000000000000000000000000000000815260206004820152602b60248201527f455243373231456e756d657261626c653a206f776e657220696e646578206f7560448201527f74206f6620626f756e647300000000000000000000000000000000000000000060648201526084016108cb565b5073ffffffffffffffffffffffffffffffffffffffff919091166000908152609760209081526040808320938352929052205490565b73ffffffffffffffffffffffffffffffffffffffff81163314610cc6576040517f08c379a000000000000000000000000000000000000000000000000000000000815260206004820152602f60248201527f416363657373436f6e74726f6c3a2063616e206f6e6c792072656e6f756e636560448201527f20726f6c657320666f722073656c66000000000000000000000000000000000060648201526084016108cb565b610cd08282612313565b5050565b3073ffffffffffffffffffffffffffffffffffffffff7f0000000000000000000000000000000000000000000000000000000000000000161415610d9a576040517f08c379a000000000000000000000000000000000000000000000000000000000815260206004820152602c60248201527f46756e6374696f6e206d7573742062652063616c6c6564207468726f7567682060448201527f64656c656761746563616c6c000000000000000000000000000000000000000060648201526084016108cb565b7f000000000000000000000000000000000000000000000000000000000000000073ffffffffffffffffffffffffffffffffffffffff16610e0f7f360894a13ba1a3210667c828492db98dca3e2076cc3735a920a3ca505d382bbc5473ffffffffffffffffffffffffffffffffffffffff1690565b73ffffffffffffffffffffffffffffffffffffffff1614610eb2576040517f08c379a000000000000000000000000000000000000000000000000000000000815260206004820152602c60248201527f46756e6374696f6e206d7573742062652063616c6c6564207468726f7567682060448201527f6163746976652070726f7879000000000000000000000000000000000000000060648201526084016108cb565b610ebb816123ce565b60408051600080825260208201909252610ed7918391906123f9565b50565b7f65d7a28e3265b37a6474929f336521b332c1681b933f6cb9f3376673440d862a610f05813361214d565b610ed7612658565b610a85838383604051806020016040528060008152506115de565b610f3133610a8f565b610fbd576040517f08c379a000000000000000000000000000000000000000000000000000000000815260206004820152603060248201527f4552433732314275726e61626c653a2063616c6c6572206973206e6f74206f7760448201527f6e6572206e6f7220617070726f7665640000000000000000000000000000000060648201526084016108cb565b610ed781612739565b3073ffffffffffffffffffffffffffffffffffffffff7f000000000000000000000000000000000000000000000000000000000000000016141561108c576040517f08c379a000000000000000000000000000000000000000000000000000000000815260206004820152602c60248201527f46756e6374696f6e206d7573742062652063616c6c6564207468726f7567682060448201527f64656c656761746563616c6c000000000000000000000000000000000000000060648201526084016108cb565b7f000000000000000000000000000000000000000000000000000000000000000073ffffffffffffffffffffffffffffffffffffffff166111017f360894a13ba1a3210667c828492db98dca3e2076cc3735a920a3ca505d382bbc5473ffffffffffffffffffffffffffffffffffffffff1690565b73ffffffffffffffffffffffffffffffffffffffff16146111a4576040517f08c379a000000000000000000000000000000000000000000000000000000000815260206004820152602c60248201527f46756e6374696f6e206d7573742062652063616c6c6564207468726f7567682060448201527f6163746976652070726f7879000000000000000000000000000000000000000060648201526084016108cb565b6111ad826123ce565b610cd0828260016123f9565b60006111c460995490565b8210611252576040517f08c379a000000000000000000000000000000000000000000000000000000000815260206004820152602c60248201527f455243373231456e756d657261626c653a20676c6f62616c20696e646578206f60448201527f7574206f6620626f756e6473000000000000000000000000000000000000000060648201526084016108cb565b609982815481106112655761126561462b565b90600052602060002001549050919050565b60008181526067602052604081205473ffffffffffffffffffffffffffffffffffffffff1680610786576040517f08c379a000000000000000000000000000000000000000000000000000000000815260206004820152602960248201527f4552433732313a206f776e657220717565727920666f72206e6f6e657869737460448201527f656e7420746f6b656e000000000000000000000000000000000000000000000060648201526084016108cb565b7f9f2df0fed2c77648de5860a4cc508cd0818c85b8b8a1ab4ceeef8d981c8956a6611354813361214d565b60006113606101c35490565b60008181526101c46020526040908190208590556101c55490517f9c40fe230000000000000000000000000000000000000000000000000000000081526004810186905291925073ffffffffffffffffffffffffffffffffffffffff1690639c40fe2390602401602060405180830381865afa1580156113e4573d6000803e3d6000fd5b505050506040513d601f19601f82011682018060405250810190611408919061465a565b6101c6600082825461141a91906146a2565b90915550506101c3805460010190556114338482612812565b50505050565b600073ffffffffffffffffffffffffffffffffffffffff82166114de576040517f08c379a000000000000000000000000000000000000000000000000000000000815260206004820152602a60248201527f4552433732313a2062616c616e636520717565727920666f7220746865207a6560448201527f726f20616464726573730000000000000000000000000000000000000000000060648201526084016108cb565b5073ffffffffffffffffffffffffffffffffffffffff1660009081526068602052604090205490565b7f65d7a28e3265b37a6474929f336521b332c1681b933f6cb9f3376673440d862a611532813361214d565b610ed761282c565b6101c55460009073ffffffffffffffffffffffffffffffffffffffff16639c40fe2361156584611baa565b6040518263ffffffff1660e01b815260040161158391815260200190565b602060405180830381865afa1580156115a0573d6000803e3d6000fd5b505050506040513d601f19601f82011682018060405250810190610786919061465a565b60606066805461079b906145d7565b610cd03383836128ec565b6115e83383611d6b565b611674576040517f08c379a000000000000000000000000000000000000000000000000000000000815260206004820152603160248201527f4552433732313a207472616e736665722063616c6c6572206973206e6f74206f60448201527f776e6572206e6f7220617070726f76656400000000000000000000000000000060648201526084016108cb565b61143384848484612a1a565b600054610100900460ff1661169b5760005460ff161561169f565b303b155b61172b576040517f08c379a000000000000000000000000000000000000000000000000000000000815260206004820152602e60248201527f496e697469616c697a61626c653a20636f6e747261637420697320616c72656160448201527f647920696e697469616c697a656400000000000000000000000000000000000060648201526084016108cb565b600054610100900460ff1615801561176a57600080547fffffffffffffffffffffffffffffffffffffffffffffffffffffffffffff0000166101011790555b6117de6040518060400160405280600981526020017f536576656e446f747300000000000000000000000000000000000000000000008152506040518060400160405280600581526020017f37444f5453000000000000000000000000000000000000000000000000000000815250612abd565b6117e6612b6e565b6117ee612c1f565b6117f6612b6e565b6117fe612b6e565b611806612cc6565b61181160003361221f565b61183b7f65d7a28e3265b37a6474929f336521b332c1681b933f6cb9f3376673440d862a3361221f565b6118657f9f2df0fed2c77648de5860a4cc508cd0818c85b8b8a1ab4ceeef8d981c8956a63361221f565b61188f7f189ab7a9244df0848122154315af71fe140f3db0fe014031783b0946b8c9d2e33361221f565b6101c580547fffffffffffffffffffffffff00000000000000000000000000000000000000001673ffffffffffffffffffffffffffffffffffffffff84161790558015610cd057600080547fffffffffffffffffffffffffffffffffffffffffffffffffffffffffffff00ff1690555050565b60008181526067602052604090205460609073ffffffffffffffffffffffffffffffffffffffff166119b6576040517f08c379a000000000000000000000000000000000000000000000000000000000815260206004820152602660248201527f53443a20546f6b656e2077697468207468697320696420646f6573206e6f742060448201527f65786973742e000000000000000000000000000000000000000000000000000060648201526084016108cb565b611b846119c283612d5d565b6101c55460008581526101c46020526040908190205490517f0f9bbde600000000000000000000000000000000000000000000000000000000815273ffffffffffffffffffffffffffffffffffffffff90921691630f9bbde691611a2c9160040190815260200190565b600060405180830381865afa158015611a49573d6000803e3d6000fd5b505050506040513d6000823e601f3d9081017fffffffffffffffffffffffffffffffffffffffffffffffffffffffffffffffe0168201604052611a8f91908101906146ba565b6101c55460008681526101c46020526040908190205490517f38a1e3cc0000000000000000000000000000000000000000000000000000000081526004810191909152611b5e9173ffffffffffffffffffffffffffffffffffffffff16906338a1e3cc90602401600060405180830381865afa158015611b13573d6000803e3d6000fd5b505050506040513d6000823e601f3d9081017fffffffffffffffffffffffffffffffffffffffffffffffffffffffffffffffe0168201604052611b5991908101906146ba565b612e8f565b604051602001611b7093929190614728565b604051602081830303815290604052612e8f565b604051602001611b9491906148b5565b6040516020818303038152906040529050919050565b60008181526067602052604081205473ffffffffffffffffffffffffffffffffffffffff16611c35576040517f08c379a000000000000000000000000000000000000000000000000000000000815260206004820152601860248201527f53443a20546f6b656e20646f6573206e6f74206578697374000000000000000060448201526064016108cb565b5060009081526101c4602052604090205490565b600082815260fb6020526040902060010154611c65813361214d565b610a858383612313565b3b151590565b60007fffffffff0000000000000000000000000000000000000000000000000000000082167f7965db0b000000000000000000000000000000000000000000000000000000001480610786575061078682613068565b600081815260696020526040902080547fffffffffffffffffffffffff00000000000000000000000000000000000000001673ffffffffffffffffffffffffffffffffffffffff84169081179091558190611d2582611277565b73ffffffffffffffffffffffffffffffffffffffff167f8c5be1e5ebec7d5bd14f71427d1e84f3dd0314c0f7b2291e5b200ac8c7c3b92560405160405180910390a45050565b60008181526067602052604081205473ffffffffffffffffffffffffffffffffffffffff16611e1c576040517f08c379a000000000000000000000000000000000000000000000000000000000815260206004820152602c60248201527f4552433732313a206f70657261746f7220717565727920666f72206e6f6e657860448201527f697374656e7420746f6b656e000000000000000000000000000000000000000060648201526084016108cb565b6000611e2783611277565b90508073ffffffffffffffffffffffffffffffffffffffff168473ffffffffffffffffffffffffffffffffffffffff161480611e9657508373ffffffffffffffffffffffffffffffffffffffff16611e7e8461081e565b73ffffffffffffffffffffffffffffffffffffffff16145b80611ed3575073ffffffffffffffffffffffffffffffffffffffff8082166000908152606a602090815260408083209388168352929052205460ff165b949350505050565b8273ffffffffffffffffffffffffffffffffffffffff16611efb82611277565b73ffffffffffffffffffffffffffffffffffffffff1614611f9e576040517f08c379a000000000000000000000000000000000000000000000000000000000815260206004820152602960248201527f4552433732313a207472616e73666572206f6620746f6b656e2074686174206960448201527f73206e6f74206f776e000000000000000000000000000000000000000000000060648201526084016108cb565b73ffffffffffffffffffffffffffffffffffffffff8216612040576040517f08c379a0000000000000000000000000000000000000000000000000000000008152602060048201526024808201527f4552433732313a207472616e7366657220746f20746865207a65726f2061646460448201527f726573730000000000000000000000000000000000000000000000000000000060648201526084016108cb565b61204b8383836130be565b612056600082611ccb565b73ffffffffffffffffffffffffffffffffffffffff8316600090815260686020526040812080546001929061208c9084906148fa565b909155505073ffffffffffffffffffffffffffffffffffffffff821660009081526068602052604081208054600192906120c79084906146a2565b909155505060008181526067602052604080822080547fffffffffffffffffffffffff00000000000000000000000000000000000000001673ffffffffffffffffffffffffffffffffffffffff86811691821790925591518493918716917fddf252ad1be2c89b69c2b068fc378daa952ba7f163c4a11628f55a4df523b3ef91a4505050565b600082815260fb6020908152604080832073ffffffffffffffffffffffffffffffffffffffff8516845290915290205460ff16610cd0576121a58173ffffffffffffffffffffffffffffffffffffffff166014613227565b6121b0836020613227565b6040516020016121c1929190614911565b604080517fffffffffffffffffffffffffffffffffffffffffffffffffffffffffffffffe0818403018152908290527f08c379a00000000000000000000000000000000000000000000000000000000082526108cb9160040161429f565b600082815260fb6020908152604080832073ffffffffffffffffffffffffffffffffffffffff8516845290915290205460ff16610cd057600082815260fb6020908152604080832073ffffffffffffffffffffffffffffffffffffffff85168452909152902080547fffffffffffffffffffffffffffffffffffffffffffffffffffffffffffffff001660011790556122b53390565b73ffffffffffffffffffffffffffffffffffffffff168173ffffffffffffffffffffffffffffffffffffffff16837f2f8788117e7eff1d82e926ec794901d17c78024a50270940304540a733656f0d60405160405180910390a45050565b600082815260fb6020908152604080832073ffffffffffffffffffffffffffffffffffffffff8516845290915290205460ff1615610cd057600082815260fb6020908152604080832073ffffffffffffffffffffffffffffffffffffffff8516808552925280832080547fffffffffffffffffffffffffffffffffffffffffffffffffffffffffffffff0016905551339285917ff6391f5c32d9c69d2a47ea670b442974b53935d1edc7fd64eb21e047a839171b9190a45050565b7f189ab7a9244df0848122154315af71fe140f3db0fe014031783b0946b8c9d2e3610cd0813361214d565b60006124397f360894a13ba1a3210667c828492db98dca3e2076cc3735a920a3ca505d382bbc5473ffffffffffffffffffffffffffffffffffffffff1690565b905061244484613471565b6000835111806124515750815b15612462576124608484613565565b505b7f4910fdfa16fed3260ed0e7147f7cc6da11a60208b5b9406d12a635614ffd9143805460ff166126515780547fffffffffffffffffffffffffffffffffffffffffffffffffffffffffffffff0016600117815560405173ffffffffffffffffffffffffffffffffffffffff83166024820152612558908690604401604080517fffffffffffffffffffffffffffffffffffffffffffffffffffffffffffffffe08184030181529190526020810180517bffffffffffffffffffffffffffffffffffffffffffffffffffffffff167f3659cfe600000000000000000000000000000000000000000000000000000000179052613565565b5080547fffffffffffffffffffffffffffffffffffffffffffffffffffffffffffffff001681557f360894a13ba1a3210667c828492db98dca3e2076cc3735a920a3ca505d382bbc5473ffffffffffffffffffffffffffffffffffffffff838116911614612648576040517f08c379a000000000000000000000000000000000000000000000000000000000815260206004820152602f60248201527f45524331393637557067726164653a207570677261646520627265616b73206660448201527f757274686572207570677261646573000000000000000000000000000000000060648201526084016108cb565b6126518561368e565b5050505050565b60c95460ff166126c4576040517f08c379a000000000000000000000000000000000000000000000000000000000815260206004820152601460248201527f5061757361626c653a206e6f742070617573656400000000000000000000000060448201526064016108cb565b60c980547fffffffffffffffffffffffffffffffffffffffffffffffffffffffffffffff001690557f5db9ee0a495bf2e6ff9c91a7834c1ba4fdd244a5e8aa4e537bd38aeae4b073aa335b60405173ffffffffffffffffffffffffffffffffffffffff909116815260200160405180910390a1565b600061274482611277565b9050612752816000846130be565b61275d600083611ccb565b73ffffffffffffffffffffffffffffffffffffffff811660009081526068602052604081208054600192906127939084906148fa565b909155505060008281526067602052604080822080547fffffffffffffffffffffffff00000000000000000000000000000000000000001690555183919073ffffffffffffffffffffffffffffffffffffffff8416907fddf252ad1be2c89b69c2b068fc378daa952ba7f163c4a11628f55a4df523b3ef908390a45050565b610cd08282604051806020016040528060008152506136db565b60c95460ff1615612899576040517f08c379a000000000000000000000000000000000000000000000000000000000815260206004820152601060248201527f5061757361626c653a207061757365640000000000000000000000000000000060448201526064016108cb565b60c980547fffffffffffffffffffffffffffffffffffffffffffffffffffffffffffffff001660011790557f62e78cea01bee320cd4e420270b5ea74000d11b0c9f74754ebdbfc544b05a25861270f3390565b8173ffffffffffffffffffffffffffffffffffffffff168373ffffffffffffffffffffffffffffffffffffffff161415612982576040517f08c379a000000000000000000000000000000000000000000000000000000000815260206004820152601960248201527f4552433732313a20617070726f766520746f2063616c6c65720000000000000060448201526064016108cb565b73ffffffffffffffffffffffffffffffffffffffff8381166000818152606a602090815260408083209487168084529482529182902080547fffffffffffffffffffffffffffffffffffffffffffffffffffffffffffffff001686151590811790915591519182527f17307eab39ab6107e8899845ad3d59bd9653f200f220920489ca2b5937696c31910160405180910390a3505050565b612a25848484611edb565b612a318484848461377e565b611433576040517f08c379a000000000000000000000000000000000000000000000000000000000815260206004820152603260248201527f4552433732313a207472616e7366657220746f206e6f6e20455243373231526560448201527f63656976657220696d706c656d656e746572000000000000000000000000000060648201526084016108cb565b600054610100900460ff16612b54576040517f08c379a000000000000000000000000000000000000000000000000000000000815260206004820152602b60248201527f496e697469616c697a61626c653a20636f6e7472616374206973206e6f74206960448201527f6e697469616c697a696e6700000000000000000000000000000000000000000060648201526084016108cb565b612b5c61396e565b612b6461396e565b610cd08282613a05565b600054610100900460ff16612c05576040517f08c379a000000000000000000000000000000000000000000000000000000000815260206004820152602b60248201527f496e697469616c697a61626c653a20636f6e7472616374206973206e6f74206960448201527f6e697469616c697a696e6700000000000000000000000000000000000000000060648201526084016108cb565b612c0d61396e565b612c1561396e565b612c1d61396e565b565b600054610100900460ff16612cb6576040517f08c379a000000000000000000000000000000000000000000000000000000000815260206004820152602b60248201527f496e697469616c697a61626c653a20636f6e7472616374206973206e6f74206960448201527f6e697469616c697a696e6700000000000000000000000000000000000000000060648201526084016108cb565b612cbe61396e565b612c1d613ac3565b600054610100900460ff16612c0d576040517f08c379a000000000000000000000000000000000000000000000000000000000815260206004820152602b60248201527f496e697469616c697a61626c653a20636f6e7472616374206973206e6f74206960448201527f6e697469616c697a696e6700000000000000000000000000000000000000000060648201526084016108cb565b606081612d9d57505060408051808201909152600181527f3000000000000000000000000000000000000000000000000000000000000000602082015290565b8160005b8115612dc75780612db181614992565b9150612dc09050600a836149fa565b9150612da1565b60008167ffffffffffffffff811115612de257612de26143a1565b6040519080825280601f01601f191660200182016040528015612e0c576020820181803683370190505b5090505b8415611ed357612e216001836148fa565b9150612e2e600a86614a0e565b612e399060306146a2565b60f81b818381518110612e4e57612e4e61462b565b60200101907effffffffffffffffffffffffffffffffffffffffffffffffffffffffffffff1916908160001a905350612e88600a866149fa565b9450612e10565b6060815160001415612eaf57505060408051602081019091526000815290565b6000604051806060016040528060408152602001614b466040913990506000600384516002612ede91906146a2565b612ee891906149fa565b612ef3906004614a22565b90506000612f028260206146a2565b67ffffffffffffffff811115612f1a57612f1a6143a1565b6040519080825280601f01601f191660200182016040528015612f44576020820181803683370190505b509050818152600183018586518101602084015b81831015612fb0576003830192508251603f8160121c168501518253600182019150603f81600c1c168501518253600182019150603f8160061c168501518253600182019150603f8116850151825350600101612f58565b600389510660018114612fca57600281146130145761305a565b7f3d3d0000000000000000000000000000000000000000000000000000000000007ffffffffffffffffffffffffffffffffffffffffffffffffffffffffffffffffe83015261305a565b7f3d000000000000000000000000000000000000000000000000000000000000007fffffffffffffffffffffffffffffffffffffffffffffffffffffffffffffffff8301525b509398975050505050505050565b60007fffffffff0000000000000000000000000000000000000000000000000000000082167f780e9d63000000000000000000000000000000000000000000000000000000001480610786575061078682613b84565b60c95460ff161561312b576040517f08c379a000000000000000000000000000000000000000000000000000000000815260206004820152601060248201527f5061757361626c653a207061757365640000000000000000000000000000000060448201526064016108cb565b613136838383613c67565b73ffffffffffffffffffffffffffffffffffffffff8216610a85576101c55460008281526101c46020526040908190205490517f9c40fe2300000000000000000000000000000000000000000000000000000000815273ffffffffffffffffffffffffffffffffffffffff90921691639c40fe23916131bb9160040190815260200190565b602060405180830381865afa1580156131d8573d6000803e3d6000fd5b505050506040513d601f19601f820116820180604052508101906131fc919061465a565b6101c6600082825461320e91906148fa565b909155505060009081526101c460205260408120555050565b60606000613236836002614a22565b6132419060026146a2565b67ffffffffffffffff811115613259576132596143a1565b6040519080825280601f01601f191660200182016040528015613283576020820181803683370190505b5090507f3000000000000000000000000000000000000000000000000000000000000000816000815181106132ba576132ba61462b565b60200101907effffffffffffffffffffffffffffffffffffffffffffffffffffffffffffff1916908160001a9053507f78000000000000000000000000000000000000000000000000000000000000008160018151811061331d5761331d61462b565b60200101907effffffffffffffffffffffffffffffffffffffffffffffffffffffffffffff1916908160001a9053506000613359846002614a22565b6133649060016146a2565b90505b6001811115613401577f303132333435363738396162636465660000000000000000000000000000000085600f16601081106133a5576133a561462b565b1a60f81b8282815181106133bb576133bb61462b565b60200101907effffffffffffffffffffffffffffffffffffffffffffffffffffffffffffff1916908160001a90535060049490941c936133fa81614a5f565b9050613367565b50831561346a576040517f08c379a000000000000000000000000000000000000000000000000000000000815260206004820181905260248201527f537472696e67733a20686578206c656e67746820696e73756666696369656e7460448201526064016108cb565b9392505050565b803b6134ff576040517f08c379a000000000000000000000000000000000000000000000000000000000815260206004820152602d60248201527f455243313936373a206e657720696d706c656d656e746174696f6e206973206e60448201527f6f74206120636f6e74726163740000000000000000000000000000000000000060648201526084016108cb565b7f360894a13ba1a3210667c828492db98dca3e2076cc3735a920a3ca505d382bbc80547fffffffffffffffffffffffff00000000000000000000000000000000000000001673ffffffffffffffffffffffffffffffffffffffff92909216919091179055565b6060823b6135f5576040517f08c379a000000000000000000000000000000000000000000000000000000000815260206004820152602660248201527f416464726573733a2064656c65676174652063616c6c20746f206e6f6e2d636f60448201527f6e7472616374000000000000000000000000000000000000000000000000000060648201526084016108cb565b6000808473ffffffffffffffffffffffffffffffffffffffff168460405161361d9190614a94565b600060405180830381855af49150503d8060008114613658576040519150601f19603f3d011682016040523d82523d6000602084013e61365d565b606091505b50915091506136858282604051806060016040528060278152602001614b8660279139613d6d565b95945050505050565b61369781613471565b60405173ffffffffffffffffffffffffffffffffffffffff8216907fbc7cd75a20ee27fd9adebab32041f755214dbc6bffa90cc0225b39da2e5c2d3b90600090a250565b6136e58383613dc0565b6136f2600084848461377e565b610a85576040517f08c379a000000000000000000000000000000000000000000000000000000000815260206004820152603260248201527f4552433732313a207472616e7366657220746f206e6f6e20455243373231526560448201527f63656976657220696d706c656d656e746572000000000000000000000000000060648201526084016108cb565b600073ffffffffffffffffffffffffffffffffffffffff84163b15613963576040517f150b7a0200000000000000000000000000000000000000000000000000000000815273ffffffffffffffffffffffffffffffffffffffff85169063150b7a02906137f5903390899088908890600401614ab0565b6020604051808303816000875af192505050801561384e575060408051601f3d9081017fffffffffffffffffffffffffffffffffffffffffffffffffffffffffffffffe016820190925261384b91810190614af9565b60015b613918573d80801561387c576040519150601f19603f3d011682016040523d82523d6000602084013e613881565b606091505b508051613910576040517f08c379a000000000000000000000000000000000000000000000000000000000815260206004820152603260248201527f4552433732313a207472616e7366657220746f206e6f6e20455243373231526560448201527f63656976657220696d706c656d656e746572000000000000000000000000000060648201526084016108cb565b805181602001fd5b7fffffffff00000000000000000000000000000000000000000000000000000000167f150b7a0200000000000000000000000000000000000000000000000000000000149050611ed3565b506001949350505050565b600054610100900460ff16612c1d576040517f08c379a000000000000000000000000000000000000000000000000000000000815260206004820152602b60248201527f496e697469616c697a61626c653a20636f6e7472616374206973206e6f74206960448201527f6e697469616c697a696e6700000000000000000000000000000000000000000060648201526084016108cb565b600054610100900460ff16613a9c576040517f08c379a000000000000000000000000000000000000000000000000000000000815260206004820152602b60248201527f496e697469616c697a61626c653a20636f6e7472616374206973206e6f74206960448201527f6e697469616c697a696e6700000000000000000000000000000000000000000060648201526084016108cb565b8151613aaf906065906020850190614145565b508051610a85906066906020840190614145565b600054610100900460ff16613b5a576040517f08c379a000000000000000000000000000000000000000000000000000000000815260206004820152602b60248201527f496e697469616c697a61626c653a20636f6e7472616374206973206e6f74206960448201527f6e697469616c697a696e6700000000000000000000000000000000000000000060648201526084016108cb565b60c980547fffffffffffffffffffffffffffffffffffffffffffffffffffffffffffffff00169055565b60007fffffffff0000000000000000000000000000000000000000000000000000000082167f80ac58cd000000000000000000000000000000000000000000000000000000001480613c1757507fffffffff0000000000000000000000000000000000000000000000000000000082167f5b5e139f00000000000000000000000000000000000000000000000000000000145b8061078657507f01ffc9a7000000000000000000000000000000000000000000000000000000007fffffffff00000000000000000000000000000000000000000000000000000000831614610786565b73ffffffffffffffffffffffffffffffffffffffff8316613ccf57613cca81609980546000838152609a60205260408120829055600182018355919091527f72a152ddfb8e864297c917af52ea6c1c68aead0fee1a62673fcc7e0c94979d000155565b613d0c565b8173ffffffffffffffffffffffffffffffffffffffff168373ffffffffffffffffffffffffffffffffffffffff1614613d0c57613d0c8382613f8e565b73ffffffffffffffffffffffffffffffffffffffff8216613d3057610a8581614045565b8273ffffffffffffffffffffffffffffffffffffffff168273ffffffffffffffffffffffffffffffffffffffff1614610a8557610a8582826140f4565b60608315613d7c57508161346a565b825115613d8c5782518084602001fd5b816040517f08c379a00000000000000000000000000000000000000000000000000000000081526004016108cb919061429f565b73ffffffffffffffffffffffffffffffffffffffff8216613e3d576040517f08c379a000000000000000000000000000000000000000000000000000000000815260206004820181905260248201527f4552433732313a206d696e7420746f20746865207a65726f206164647265737360448201526064016108cb565b60008181526067602052604090205473ffffffffffffffffffffffffffffffffffffffff1615613ec9576040517f08c379a000000000000000000000000000000000000000000000000000000000815260206004820152601c60248201527f4552433732313a20746f6b656e20616c7265616479206d696e7465640000000060448201526064016108cb565b613ed5600083836130be565b73ffffffffffffffffffffffffffffffffffffffff82166000908152606860205260408120805460019290613f0b9084906146a2565b909155505060008181526067602052604080822080547fffffffffffffffffffffffff00000000000000000000000000000000000000001673ffffffffffffffffffffffffffffffffffffffff861690811790915590518392907fddf252ad1be2c89b69c2b068fc378daa952ba7f163c4a11628f55a4df523b3ef908290a45050565b60006001613f9b84611439565b613fa591906148fa565b6000838152609860205260409020549091508082146140055773ffffffffffffffffffffffffffffffffffffffff841660009081526097602090815260408083208584528252808320548484528184208190558352609890915290208190555b50600091825260986020908152604080842084905573ffffffffffffffffffffffffffffffffffffffff9094168352609781528383209183525290812055565b609954600090614057906001906148fa565b6000838152609a60205260408120546099805493945090928490811061407f5761407f61462b565b9060005260206000200154905080609983815481106140a0576140a061462b565b6000918252602080832090910192909255828152609a909152604080822084905585825281205560998054806140d8576140d8614b16565b6001900381819060005260206000200160009055905550505050565b60006140ff83611439565b73ffffffffffffffffffffffffffffffffffffffff9093166000908152609760209081526040808320868452825280832085905593825260989052919091209190915550565b828054614151906145d7565b90600052602060002090601f01602090048101928261417357600085556141b9565b82601f1061418c57805160ff19168380011785556141b9565b828001600101855582156141b9579182015b828111156141b957825182559160200191906001019061419e565b506141c59291506141c9565b5090565b5b808211156141c557600081556001016141ca565b7fffffffff0000000000000000000000000000000000000000000000000000000081168114610ed757600080fd5b60006020828403121561421e57600080fd5b813561346a816141de565b60005b8381101561424457818101518382015260200161422c565b838111156114335750506000910152565b6000815180845261426d816020860160208601614229565b601f017fffffffffffffffffffffffffffffffffffffffffffffffffffffffffffffffe0169290920160200192915050565b60208152600061346a6020830184614255565b6000602082840312156142c457600080fd5b5035919050565b803573ffffffffffffffffffffffffffffffffffffffff811681146142ef57600080fd5b919050565b6000806040838503121561430757600080fd5b614310836142cb565b946020939093013593505050565b60008060006060848603121561433357600080fd5b61433c846142cb565b925061434a602085016142cb565b9150604084013590509250925092565b6000806040838503121561436d57600080fd5b8235915061437d602084016142cb565b90509250929050565b60006020828403121561439857600080fd5b61346a826142cb565b7f4e487b7100000000000000000000000000000000000000000000000000000000600052604160045260246000fd5b604051601f82017fffffffffffffffffffffffffffffffffffffffffffffffffffffffffffffffe016810167ffffffffffffffff81118282101715614417576144176143a1565b604052919050565b600067ffffffffffffffff821115614439576144396143a1565b50601f017fffffffffffffffffffffffffffffffffffffffffffffffffffffffffffffffe01660200190565b600082601f83011261447657600080fd5b81356144896144848261441f565b6143d0565b81815284602083860101111561449e57600080fd5b816020850160208301376000918101602001919091529392505050565b600080604083850312156144ce57600080fd5b6144d7836142cb565b9150602083013567ffffffffffffffff8111156144f357600080fd5b6144ff85828601614465565b9150509250929050565b6000806040838503121561451c57600080fd5b614525836142cb565b91506020830135801515811461453a57600080fd5b809150509250929050565b6000806000806080858703121561455b57600080fd5b614564856142cb565b9350614572602086016142cb565b925060408501359150606085013567ffffffffffffffff81111561459557600080fd5b6145a187828801614465565b91505092959194509250565b600080604083850312156145c057600080fd5b6145c9836142cb565b915061437d602084016142cb565b600181811c908216806145eb57607f821691505b60208210811415614625577f4e487b7100000000000000000000000000000000000000000000000000000000600052602260045260246000fd5b50919050565b7f4e487b7100000000000000000000000000000000000000000000000000000000600052603260045260246000fd5b60006020828403121561466c57600080fd5b5051919050565b7f4e487b7100000000000000000000000000000000000000000000000000000000600052601160045260246000fd5b600082198211156146b5576146b5614673565b500190565b6000602082840312156146cc57600080fd5b815167ffffffffffffffff8111156146e357600080fd5b8201601f810184136146f457600080fd5b80516147026144848261441f565b81815285602083850101111561471757600080fd5b613685826020830160208601614229565b7f7b0000000000000000000000000000000000000000000000000000000000000081527f226e616d65223a2223000000000000000000000000000000000000000000000060018201526000845161478681600a850160208901614229565b80830190507f222c000000000000000000000000000000000000000000000000000000000000600a8201527f226465736372697074696f6e223a22536576656e20446f747320546f6b656e22600c8201527f2c0000000000000000000000000000000000000000000000000000000000000080602c830152855161481181602d850160208a01614229565b602d9201918201527f22696d616765223a220000000000000000000000000000000000000000000000602e8201527f646174613a696d6167652f7376672b786d6c3b6261736536342c00000000000060378201528351614878816051840160208801614229565b6148aa6051828401017f227d000000000000000000000000000000000000000000000000000000000000815260020190565b979650505050505050565b7f646174613a6170706c69636174696f6e2f6a736f6e3b6261736536342c0000008152600082516148ed81601d850160208701614229565b91909101601d0192915050565b60008282101561490c5761490c614673565b500390565b7f416363657373436f6e74726f6c3a206163636f756e7420000000000000000000815260008351614949816017850160208801614229565b7f206973206d697373696e6720726f6c65200000000000000000000000000000006017918401918201528351614986816028840160208801614229565b01602801949350505050565b60007fffffffffffffffffffffffffffffffffffffffffffffffffffffffffffffffff8214156149c4576149c4614673565b5060010190565b7f4e487b7100000000000000000000000000000000000000000000000000000000600052601260045260246000fd5b600082614a0957614a096149cb565b500490565b600082614a1d57614a1d6149cb565b500690565b6000817fffffffffffffffffffffffffffffffffffffffffffffffffffffffffffffffff0483118215151615614a5a57614a5a614673565b500290565b600081614a6e57614a6e614673565b507fffffffffffffffffffffffffffffffffffffffffffffffffffffffffffffffff0190565b60008251614aa6818460208701614229565b9190910192915050565b600073ffffffffffffffffffffffffffffffffffffffff808716835280861660208401525083604083015260806060830152614aef6080830184614255565b9695505050505050565b600060208284031215614b0b57600080fd5b815161346a816141de565b7f4e487b7100000000000000000000000000000000000000000000000000000000600052603160045260246000fdfe4142434445464748494a4b4c4d4e4f505152535455565758595a6162636465666768696a6b6c6d6e6f707172737475767778797a303132333435363738392b2f416464726573733a206c6f772d6c6576656c2064656c65676174652063616c6c206661696c6564a264697066735822122091a2ff53674886bb3fbc20414987f6810051dfc6881ec6a2de5e9329ae010e4064736f6c634300080b0033",
  "linkReferences": {},
  "deployedLinkReferences": {}
}